{
  "contractName": "AttendanceTracker",
  "abi": [
    {
      "anonymous": false,
      "inputs": [
        {
          "indexed": false,
          "internalType": "string",
          "name": "operationType",
          "type": "string"
        },
        {
          "indexed": false,
          "internalType": "string",
          "name": "courseName",
          "type": "string"
        },
        {
          "indexed": false,
          "internalType": "string",
          "name": "additionalInfo",
          "type": "string"
        },
        {
          "indexed": false,
          "internalType": "string",
          "name": "encryptedId",
          "type": "string"
        }
      ],
      "name": "RecordCreated",
      "type": "event"
    },
    {
      "inputs": [
        {
          "internalType": "string",
          "name": "operationType",
          "type": "string"
        },
        {
          "internalType": "string",
          "name": "courseName",
          "type": "string"
        },
        {
          "internalType": "string",
          "name": "additionalInfo",
          "type": "string"
        },
        {
          "internalType": "string",
          "name": "encryptedId",
          "type": "string"
        }
      ],
      "name": "addRecord",
      "outputs": [],
      "stateMutability": "nonpayable",
      "type": "function"
    },
    {
      "inputs": [
        {
          "internalType": "string",
          "name": "courseName",
          "type": "string"
        }
      ],
      "name": "countRegistrations",
      "outputs": [
        {
          "internalType": "uint256",
          "name": "",
          "type": "uint256"
        }
      ],
      "stateMutability": "view",
      "type": "function",
      "constant": true
    },
    {
      "inputs": [
        {
          "internalType": "string",
          "name": "courseName",
          "type": "string"
        },
        {
          "internalType": "string",
          "name": "lessonName",
          "type": "string"
        }
      ],
      "name": "countLessonAttendances",
      "outputs": [
        {
          "internalType": "uint256",
          "name": "",
          "type": "uint256"
        }
      ],
      "stateMutability": "view",
      "type": "function",
      "constant": true
    },
    {
      "inputs": [
        {
          "internalType": "string",
          "name": "courseName",
          "type": "string"
        },
        {
          "internalType": "string",
          "name": "examDate",
          "type": "string"
        }
      ],
      "name": "countExamParticipations",
      "outputs": [
        {
          "internalType": "uint256",
          "name": "",
          "type": "uint256"
        }
      ],
      "stateMutability": "view",
      "type": "function",
      "constant": true
    },
    {
      "inputs": [
        {
          "internalType": "string",
          "name": "operationType",
          "type": "string"
        },
        {
          "internalType": "string",
          "name": "courseName",
          "type": "string"
        },
        {
          "internalType": "string",
          "name": "additionalInfo",
          "type": "string"
        }
      ],
      "name": "getRecordsByOperation",
      "outputs": [
        {
          "components": [
            {
              "internalType": "string",
              "name": "operationType",
              "type": "string"
            },
            {
              "internalType": "string",
              "name": "courseName",
              "type": "string"
            },
            {
              "internalType": "string",
              "name": "additionalInfo",
              "type": "string"
            },
            {
              "internalType": "string",
              "name": "encryptedId",
              "type": "string"
            }
          ],
          "internalType": "struct AttendanceTracker.Record[]",
          "name": "",
          "type": "tuple[]"
        }
      ],
      "stateMutability": "view",
      "type": "function",
      "constant": true
    }
  ],
  "bytecode": "0x608060405234801561001057600080fd5b5061163e806100206000396000f3fe608060405234801561001057600080fd5b50600436106100575760003560e01c80630253876e1461005c5780635717f5641461008c5780636ea273d2146100bc57806397fd28b3146100ec578063b0af78a414610108575b600080fd5b61007660048036038101906100719190610eff565b610138565b60405161008391906113a1565b60405180910390f35b6100a660048036038101906100a19190610f40565b61028f565b6040516100b391906113a1565b60405180910390f35b6100d660048036038101906100d19190610fac565b610458565b6040516100e3919061131e565b60405180910390f35b61010660048036038101906101019190611043565b610afe565b005b610122600480360381019061011d9190610f40565b610c03565b60405161012f91906113a1565b60405180910390f35b6000806000905060005b600080549050811015610285576040518060400160405280600d81526020017f52656769737472617a696f6e650000000000000000000000000000000000000081525080519060200120600082815481106101c6577f4e487b7100000000000000000000000000000000000000000000000000000000600052603260045260246000fd5b90600052602060002090600402016000016040516101e49190611307565b604051809103902014801561025e5750838051906020012060008281548110610236577f4e487b7100000000000000000000000000000000000000000000000000000000600052603260045260246000fd5b90600052602060002090600402016001016040516102549190611307565b6040518091039020145b1561027257818061026e90611521565b9250505b808061027d90611521565b915050610142565b5080915050919050565b6000806000905060005b60008054905081101561044d576040518060400160405280600781526020017f4c657a696f6e6500000000000000000000000000000000000000000000000000815250805190602001206000828154811061031d577f4e487b7100000000000000000000000000000000000000000000000000000000600052603260045260246000fd5b906000526020600020906004020160000160405161033b9190611307565b60405180910390201480156103b5575083805190602001206000828154811061038d577f4e487b7100000000000000000000000000000000000000000000000000000000600052603260045260246000fd5b90600052602060002090600402016002016040516103ab9190611307565b6040518091039020145b801561042657508480519060200120600082815481106103fe577f4e487b7100000000000000000000000000000000000000000000000000000000600052603260045260246000fd5b906000526020600020906004020160010160405161041c9190611307565b6040518091039020145b1561043a57818061043690611521565b9250505b808061044590611521565b915050610299565b508091505092915050565b60606000808054905067ffffffffffffffff8111156104a0577f4e487b7100000000000000000000000000000000000000000000000000000000600052604160045260246000fd5b6040519080825280602002602001820160405280156104d957816020015b6104c6610dcc565b8152602001906001900390816104be5790505b5090506000805b6000805490508110156109ce576000878051906020012060008381548110610531577f4e487b7100000000000000000000000000000000000000000000000000000000600052603260045260246000fd5b906000526020600020906004020160000160405161054f9190611307565b6040518091039020149050600087805190602001206000848154811061059e577f4e487b7100000000000000000000000000000000000000000000000000000000600052603260045260246000fd5b90600052602060002090600402016001016040516105bc9190611307565b6040518091039020149050600087805190602001206000858154811061060b577f4e487b7100000000000000000000000000000000000000000000000000000000600052603260045260246000fd5b90600052602060002090600402016002016040516106299190611307565b6040518091039020148061066357507fc5d2460186f7233c927e7db2dcc703c0e500b653ca82273b7bfad8045d85a4708880519060200120145b905082801561066f5750815b80156106c5575080806106c457506040518060400160405280600d81526020017f52656769737472617a696f6e6500000000000000000000000000000000000000815250805190602001208a80519060200120145b5b156109b85760008481548110610704577f4e487b7100000000000000000000000000000000000000000000000000000000600052603260045260246000fd5b906000526020600020906004020160405180608001604052908160008201805461072d906114ef565b80601f0160208091040260200160405190810160405280929190818152602001828054610759906114ef565b80156107a65780601f1061077b576101008083540402835291602001916107a6565b820191906000526020600020905b81548152906001019060200180831161078957829003601f168201915b505050505081526020016001820180546107bf906114ef565b80601f01602080910402602001604051908101604052809291908181526020018280546107eb906114ef565b80156108385780601f1061080d57610100808354040283529160200191610838565b820191906000526020600020905b81548152906001019060200180831161081b57829003601f168201915b50505050508152602001600282018054610851906114ef565b80601f016020809104026020016040519081016040528092919081815260200182805461087d906114ef565b80156108ca5780601f1061089f576101008083540402835291602001916108ca565b820191906000526020600020905b8154815290600101906020018083116108ad57829003601f168201915b505050505081526020016003820180546108e3906114ef565b80601f016020809104026020016040519081016040528092919081815260200182805461090f906114ef565b801561095c5780601f106109315761010080835404028352916020019161095c565b820191906000526020600020905b81548152906001019060200180831161093f57829003601f168201915b50505050508152505086868151811061099e577f4e487b7100000000000000000000000000000000000000000000000000000000600052603260045260246000fd5b602002602001018190525084806109b490611521565b9550505b50505080806109c690611521565b9150506104e0565b5060008167ffffffffffffffff811115610a11577f4e487b7100000000000000000000000000000000000000000000000000000000600052604160045260246000fd5b604051908082528060200260200182016040528015610a4a57816020015b610a37610dcc565b815260200190600190039081610a2f5790505b50905060005b82811015610af057838181518110610a91577f4e487b7100000000000000000000000000000000000000000000000000000000600052603260045260246000fd5b6020026020010151828281518110610ad2577f4e487b7100000000000000000000000000000000000000000000000000000000600052603260045260246000fd5b60200260200101819052508080610ae890611521565b915050610a50565b508093505050509392505050565b600060405180608001604052808681526020018581526020018481526020018381525090806001815401808255809150506001900390600052602060002090600402016000909190919091506000820151816000019080519060200190610b66929190610df4565b506020820151816001019080519060200190610b83929190610df4565b506040820151816002019080519060200190610ba0929190610df4565b506060820151816003019080519060200190610bbd929190610df4565b5050507fe98f847d808d8cb98dc662c1a1516800dd054ce91c767c50019aef8d66f8b59c84848484604051610bf59493929190611340565b60405180910390a150505050565b6000806000905060005b600080549050811015610dc1576040518060400160405280600581526020017f4573616d650000000000000000000000000000000000000000000000000000008152508051906020012060008281548110610c91577f4e487b7100000000000000000000000000000000000000000000000000000000600052603260045260246000fd5b9060005260206000209060040201600001604051610caf9190611307565b6040518091039020148015610d295750838051906020012060008281548110610d01577f4e487b7100000000000000000000000000000000000000000000000000000000600052603260045260246000fd5b9060005260206000209060040201600201604051610d1f9190611307565b6040518091039020145b8015610d9a5750848051906020012060008281548110610d72577f4e487b7100000000000000000000000000000000000000000000000000000000600052603260045260246000fd5b9060005260206000209060040201600101604051610d909190611307565b6040518091039020145b15610dae578180610daa90611521565b9250505b8080610db990611521565b915050610c0d565b508091505092915050565b6040518060800160405280606081526020016060815260200160608152602001606081525090565b828054610e00906114ef565b90600052602060002090601f016020900481019282610e225760008555610e69565b82601f10610e3b57805160ff1916838001178555610e69565b82800160010185558215610e69579182015b82811115610e68578251825591602001919060010190610e4d565b5b509050610e769190610e7a565b5090565b5b80821115610e93576000816000905550600101610e7b565b5090565b6000610eaa610ea5846113ed565b6113bc565b905082815260208101848484011115610ec257600080fd5b610ecd8482856114ad565b509392505050565b600082601f830112610ee657600080fd5b8135610ef6848260208601610e97565b91505092915050565b600060208284031215610f1157600080fd5b600082013567ffffffffffffffff811115610f2b57600080fd5b610f3784828501610ed5565b91505092915050565b60008060408385031215610f5357600080fd5b600083013567ffffffffffffffff811115610f6d57600080fd5b610f7985828601610ed5565b925050602083013567ffffffffffffffff811115610f9657600080fd5b610fa285828601610ed5565b9150509250929050565b600080600060608486031215610fc157600080fd5b600084013567ffffffffffffffff811115610fdb57600080fd5b610fe786828701610ed5565b935050602084013567ffffffffffffffff81111561100457600080fd5b61101086828701610ed5565b925050604084013567ffffffffffffffff81111561102d57600080fd5b61103986828701610ed5565b9150509250925092565b6000806000806080858703121561105957600080fd5b600085013567ffffffffffffffff81111561107357600080fd5b61107f87828801610ed5565b945050602085013567ffffffffffffffff81111561109c57600080fd5b6110a887828801610ed5565b935050604085013567ffffffffffffffff8111156110c557600080fd5b6110d187828801610ed5565b925050606085013567ffffffffffffffff8111156110ee57600080fd5b6110fa87828801610ed5565b91505092959194509250565b60006111128383611280565b905092915050565b600061112582611442565b61112f8185611465565b9350836020820285016111418561141d565b8060005b8581101561117d578484038952815161115e8582611106565b945061116983611458565b925060208a01995050600181019050611145565b50829750879550505050505092915050565b6000815461119c816114ef565b6111a68186611476565b945060018216600081146111c157600181146111d257611205565b60ff19831686528186019350611205565b6111db8561142d565b60005b838110156111fd578154818901526001820191506020810190506111de565b838801955050505b50505092915050565b60006112198261144d565b6112238185611481565b93506112338185602086016114bc565b61123c816115f7565b840191505092915050565b60006112528261144d565b61125c8185611492565b935061126c8185602086016114bc565b611275816115f7565b840191505092915050565b6000608083016000830151848203600086015261129d828261120e565b915050602083015184820360208601526112b7828261120e565b915050604083015184820360408601526112d1828261120e565b915050606083015184820360608601526112eb828261120e565b9150508091505092915050565b611301816114a3565b82525050565b6000611313828461118f565b915081905092915050565b60006020820190508181036000830152611338818461111a565b905092915050565b6000608082019050818103600083015261135a8187611247565b9050818103602083015261136e8186611247565b905081810360408301526113828185611247565b905081810360608301526113968184611247565b905095945050505050565b60006020820190506113b660008301846112f8565b92915050565b6000604051905081810181811067ffffffffffffffff821117156113e3576113e26115c8565b5b8060405250919050565b600067ffffffffffffffff821115611408576114076115c8565b5b601f19601f8301169050602081019050919050565b6000819050602082019050919050565b60008190508160005260206000209050919050565b600081519050919050565b600081519050919050565b6000602082019050919050565b600082825260208201905092915050565b600081905092915050565b600082825260208201905092915050565b600082825260208201905092915050565b6000819050919050565b82818337600083830152505050565b60005b838110156114da5780820151818401526020810190506114bf565b838111156114e9576000848401525b50505050565b6000600282049050600182168061150757607f821691505b6020821081141561151b5761151a611599565b5b50919050565b600061152c826114a3565b91507fffffffffffffffffffffffffffffffffffffffffffffffffffffffffffffffff82141561155f5761155e61156a565b5b600182019050919050565b7f4e487b7100000000000000000000000000000000000000000000000000000000600052601160045260246000fd5b7f4e487b7100000000000000000000000000000000000000000000000000000000600052602260045260246000fd5b7f4e487b7100000000000000000000000000000000000000000000000000000000600052604160045260246000fd5b6000601f19601f830116905091905056fea2646970667358221220db9acd7ee2f0b00e2d9a9bf249fa74a0615c334359a4068680bc6b61d3961a4c64736f6c63430008000033",
  "immutableReferences": {},
  "source": "// SPDX-License-Identifier: MIT\npragma solidity ^0.8.0;\n\ncontract AttendanceTracker {\n    // Struttura per memorizzare i record di presenza\n    struct Record {\n        string operationType; // Tipo di operazione: \"Registrazione\", \"Lezione\", \"Esame\"\n        string courseName; // Nome del corso\n        string additionalInfo; // Nome della lezione o data dell'esame; vuoto per le registrazioni\n        string encryptedId; // ID dello studente criptato\n    }\n\n    // Array per memorizzare tutti i record\n    Record[] private records;\n\n    // Evento emesso ogni volta che un record viene creato\n    event RecordCreated(string operationType, string courseName, string additionalInfo, string encryptedId);\n\n    /**\n     * @dev Aggiunge un nuovo record di presenza.\n     * @param operationType Il tipo di operazione (\"Registrazione\", \"Lezione\", \"Esame\").\n     * @param courseName Il nome del corso associato al record.\n     * @param additionalInfo Informazioni aggiuntive (es. nome della lezione o data dell'esame).\n     * @param encryptedId L'ID criptato dello studente.\n     */\n    function addRecord(string memory operationType, string memory courseName, string memory additionalInfo, string memory encryptedId) public {\n        records.push(Record(operationType, courseName, additionalInfo, encryptedId));\n        emit RecordCreated(operationType, courseName, additionalInfo, encryptedId);\n    }\n\n    /**\n     * @dev Conta il numero di registrazioni per un dato corso.\n     * @param courseName Il nome del corso.\n     * @return Il numero di registrazioni trovate.\n     */\n    function countRegistrations(string memory courseName) public view returns (uint) {\n        uint count = 0;\n        for(uint i = 0; i < records.length; i++) {\n            if(keccak256(bytes(records[i].operationType)) == keccak256(bytes(\"Registrazione\")) && keccak256(bytes(records[i].courseName)) == keccak256(bytes(courseName))) {\n                count++;\n            }\n        }\n        return count;\n    }\n\n    /**\n     * @dev Conta il numero di presenze per una data lezione di un dato corso.\n     * @param courseName Il nome del corso.\n     * @param lessonName Il nome della lezione.\n     * @return Il numero di presenze trovate.\n     */\n    function countLessonAttendances(string memory courseName, string memory lessonName) public view returns (uint) {\n        uint count = 0;\n        for(uint i = 0; i < records.length; i++) {\n            if(keccak256(bytes(records[i].operationType)) == keccak256(bytes(\"Lezione\")) &&\n            keccak256(bytes(records[i].additionalInfo)) == keccak256(bytes(lessonName)) &&\n            keccak256(bytes(records[i].courseName)) == keccak256(bytes(courseName))) {\n                count++;\n            }\n        }\n        return count;\n    }\n\n    /**\n     * @dev Conta il numero di partecipazioni a un dato esame di un dato corso.\n     * @param courseName Il nome del corso.\n     * @param examDate La data dell'esame.\n     * @return Il numero di partecipazioni trovate.\n     */\n    function countExamParticipations(string memory courseName, string memory examDate) public view returns (uint) {\n        uint count = 0;\n        for(uint i = 0; i < records.length; i++) {\n            if(keccak256(bytes(records[i].operationType)) == keccak256(bytes(\"Esame\")) &&\n            keccak256(bytes(records[i].additionalInfo)) == keccak256(bytes(examDate)) &&\n            keccak256(bytes(records[i].courseName)) == keccak256(bytes(courseName))) {\n                count++;\n            }\n        }\n        return count;\n    }\n\n    /**\n     * @dev Restituisce i record in base al tipo di operazione e ai dettagli specifici.\n     * @param operationType Il tipo di operazione (\"Registrazione\", \"Lezione\", \"Esame\").\n     * @param courseName Il nome del corso.\n     * @param additionalInfo Informazioni aggiuntive (es. nome della lezione o data dell'esame).\n     * @return Un array di record filtrati in base ai criteri specificati.\n     */\n    function getRecordsByOperation(string memory operationType, string memory courseName, string memory additionalInfo) public view returns (Record[] memory) {\n        Record[] memory tempRecords = new Record[](records.length);\n        uint count = 0;\n        \n        for(uint i = 0; i < records.length; i++) {\n            bool matchOperationType = keccak256(bytes(records[i].operationType)) == keccak256(bytes(operationType));\n            bool matchCourseName = keccak256(bytes(records[i].courseName)) == keccak256(bytes(courseName));\n            bool matchAdditionalInfo = keccak256(bytes(records[i].additionalInfo)) == keccak256(bytes(additionalInfo)) || keccak256(bytes(additionalInfo)) == keccak256(\"\");\n\n            if(matchOperationType && matchCourseName && (matchAdditionalInfo || keccak256(bytes(operationType)) == keccak256(bytes(\"Registrazione\")))) {\n                tempRecords[count] = records[i];\n                count++;\n            }\n        }\n        \n        Record[] memory filteredRecords = new Record[](count);\n        for(uint j = 0; j < count; j++) {\n            filteredRecords[j] = tempRecords[j];\n        }\n        \n        return filteredRecords;\n    }\n}\n",
  "sourcePath": "/Users/laplace/Desktop/Iots_Sdd_Project/remoteAccessAPI/contracts/AttendanceTracker.sol",
  "compiler": {
    "name": "solc",
    "version": "0.8.0+commit.c7dfd78e.Emscripten.clang"
  },
  "schemaVersion": "3.4.16",
  "updatedAt": "2024-09-03T17:54:02.782Z",
  "networkType": "ethereum",
  "devdoc": {
    "kind": "dev",
    "methods": {
      "addRecord(string,string,string,string)": {
        "details": "Aggiunge un nuovo record di presenza.",
        "params": {
          "additionalInfo": "Informazioni aggiuntive (es. nome della lezione o data dell'esame).",
          "courseName": "Il nome del corso associato al record.",
          "encryptedId": "L'ID criptato dello studente.",
          "operationType": "Il tipo di operazione (\"Registrazione\", \"Lezione\", \"Esame\")."
        }
      },
      "countExamParticipations(string,string)": {
        "details": "Conta il numero di partecipazioni a un dato esame di un dato corso.",
        "params": {
          "courseName": "Il nome del corso.",
          "examDate": "La data dell'esame."
        },
        "returns": {
          "_0": "Il numero di partecipazioni trovate."
        }
      },
      "countLessonAttendances(string,string)": {
        "details": "Conta il numero di presenze per una data lezione di un dato corso.",
        "params": {
          "courseName": "Il nome del corso.",
          "lessonName": "Il nome della lezione."
        },
        "returns": {
          "_0": "Il numero di presenze trovate."
        }
      },
      "countRegistrations(string)": {
        "details": "Conta il numero di registrazioni per un dato corso.",
        "params": {
          "courseName": "Il nome del corso."
        },
        "returns": {
          "_0": "Il numero di registrazioni trovate."
        }
      },
      "getRecordsByOperation(string,string,string)": {
        "details": "Restituisce i record in base al tipo di operazione e ai dettagli specifici.",
        "params": {
          "additionalInfo": "Informazioni aggiuntive (es. nome della lezione o data dell'esame).",
          "courseName": "Il nome del corso.",
          "operationType": "Il tipo di operazione (\"Registrazione\", \"Lezione\", \"Esame\")."
        },
        "returns": {
          "_0": "Un array di record filtrati in base ai criteri specificati."
        }
      }
    },
    "version": 1
  },
  "userdoc": {
    "kind": "user",
    "methods": {},
    "version": 1
  }
}